{
  "transactions": [
    {
      "hash": "0x1abc5274e02fb08e72eb606fe12fc8060742466280aae0e1ad57ef75d921070c",
      "transactionType": "CALL",
      "contractName": "LinkToken",
      "contractAddress": "0x779877A7B0D9E8603169DdbD7836e478b4624789",
      "function": "transferAndCall(address,uint256,bytes):(bool)",
      "arguments": [
        "0x8103B0A8A00be2DDC778e6e7eaa21791Cd364625",
        "3000000000000000000",
        "0x0000000000000000000000000000000000000000000000000000000000000d90"
      ],
      "transaction": {
        "type": "0x02",
        "from": "0x7cf2703e09eae37cf1204fa2d3a24e0bb03a8c93",
        "to": "0x779877a7b0d9e8603169ddbd7836e478b4624789",
        "gas": "0x1b43f",
        "value": "0x0",
        "data": "0x4000aea00000000000000000000000008103b0a8a00be2ddc778e6e7eaa21791cd36462500000000000000000000000000000000000000000000000029a2241af62c0000000000000000000000000000000000000000000000000000000000000000006000000000000000000000000000000000000000000000000000000000000000200000000000000000000000000000000000000000000000000000000000000d90",
        "nonce": "0x1",
        "accessList": []
      },
      "additionalContracts": [],
      "isFixedGasLimit": false
    }
  ],
  "receipts": [
    {
      "transactionHash": "0x1abc5274e02fb08e72eb606fe12fc8060742466280aae0e1ad57ef75d921070c",
      "transactionIndex": "0x2",
      "blockHash": "0x11830b8cc36ae255effb999aec9117a8ea7781dc10f7ad62cab0a24d7017b153",
      "blockNumber": "0x3aadd7",
      "from": "0x7Cf2703e09EAE37cf1204Fa2d3A24E0bB03A8c93",
      "to": "0x779877A7B0D9E8603169DdbD7836e478b4624789",
      "cumulativeGasUsed": "0x3112a",
      "gasUsed": "0x12a4a",
      "contractAddress": null,
      "logs": [
        {
          "address": "0x779877A7B0D9E8603169DdbD7836e478b4624789",
          "topics": [
            "0xddf252ad1be2c89b69c2b068fc378daa952ba7f163c4a11628f55a4df523b3ef",
            "0x0000000000000000000000007cf2703e09eae37cf1204fa2d3a24e0bb03a8c93",
            "0x0000000000000000000000008103b0a8a00be2ddc778e6e7eaa21791cd364625"
          ],
          "data": "0x00000000000000000000000000000000000000000000000029a2241af62c0000",
          "blockHash": "0x11830b8cc36ae255effb999aec9117a8ea7781dc10f7ad62cab0a24d7017b153",
          "blockNumber": "0x3aadd7",
          "transactionHash": "0x1abc5274e02fb08e72eb606fe12fc8060742466280aae0e1ad57ef75d921070c",
          "transactionIndex": "0x2",
          "logIndex": "0x0",
          "removed": false
        },
        {
          "address": "0x779877A7B0D9E8603169DdbD7836e478b4624789",
          "topics": [
            "0xe19260aff97b920c7df27010903aeb9c8d2be5d310a2c67824cf3f15396e4c16",
            "0x0000000000000000000000007cf2703e09eae37cf1204fa2d3a24e0bb03a8c93",
            "0x0000000000000000000000008103b0a8a00be2ddc778e6e7eaa21791cd364625"
          ],
          "data": "0x00000000000000000000000000000000000000000000000029a2241af62c0000000000000000000000000000000000000000000000000000000000000000004000000000000000000000000000000000000000000000000000000000000000200000000000000000000000000000000000000000000000000000000000000d90",
          "blockHash": "0x11830b8cc36ae255effb999aec9117a8ea7781dc10f7ad62cab0a24d7017b153",
          "blockNumber": "0x3aadd7",
          "transactionHash": "0x1abc5274e02fb08e72eb606fe12fc8060742466280aae0e1ad57ef75d921070c",
          "transactionIndex": "0x2",
          "logIndex": "0x1",
          "removed": false
        },
        {
          "address": "0x8103B0A8A00be2DDC778e6e7eaa21791Cd364625",
          "topics": [
            "0xd39ec07f4e209f627a4c427971473820dc129761ba28de8906bd56f57101d4f8",
            "0x0000000000000000000000000000000000000000000000000000000000000d90"
          ],
          "data": "0x000000000000000000000000000000000000000000000000000000000000000000000000000000000000000000000000000000000000000029a2241af62c0000",
          "blockHash": "0x11830b8cc36ae255effb999aec9117a8ea7781dc10f7ad62cab0a24d7017b153",
          "blockNumber": "0x3aadd7",
          "transactionHash": "0x1abc5274e02fb08e72eb606fe12fc8060742466280aae0e1ad57ef75d921070c",
          "transactionIndex": "0x2",
          "logIndex": "0x2",
          "removed": false
        }
      ],
      "status": "0x1",
      "logsBloom": "0x0000001400000000000000000000000010000000000000020000000006000000000000000000800000000000000000000000000000000000000000000000020000000000000000000000000800000000000000000000000000002000000000000000000000000000000000000000000000000000400000000000001000000000000000000d000020000000000100800010000020000000000000000000000000000000000000000000000000000000000000000000000000000400000000000000800002000000000000000000000000000000000000000100000000000000000000000000000000000000000000000000000000000000000000000000000000",
      "type": "0x2",
      "effectiveGasPrice": "0xb2d05e09"
    }
  ],
  "libraries": [],
  "pending": [],
  "returns": {},
  "timestamp": 1688750974,
  "chain": 11155111,
  "multi": false,
  "commit": "a393f83"
}